:020000040802F0
:1002000060BF012061040208155602085D50020813
:10021000ED550208910B0208E58A02080000000073
:10022000000000000000000000000000A103020820
:10023000390D020800000000FD030208ED69020804
:100240007B0402087B0402087B0402087B0402088A
:100250007B0402087B0402087B0402087B0402087A
:100260007B0402087B0402087B0402087B0402086A
:10027000650C02087B040208710C02087B0402086A
:100280007B0402087B0402087B0402087B0402084A
:100290007B0402087B0402087B0402087B0402083A
:1002A0007B0402087B0402087B0402087B0402082A
:1002B0007B0402087B0402087B0402087B0402081A
:1002C0007B0402087B0402087B04020859630208CD
:1002D0007B0402087B0402087B0402086D6F02089D
:1002E0007B0402087B0402087B0402087B040208EA
:1002F0007B0402087B0402087B0402087B040208DA
:100300007B0402087B0402087B0402087B040208C9
:100310007B0402087B040208BD6A0208C96A02085D
:100320007D0C02087B0402087B040208890C020889
:100330007B040208D50D02087B0402087B04020836
:100340007B0402087B0402087B0402087B04020889
:100350007B0402087B0402087B0402087B04020879
:100360007B0402087B0402087B0402087B04020869
:100370007B040208195602087B04020800000000F2
:100380007B0402087B040208DFF810D000F066FB53
:1003900000480047217E0308AFF3008060BF0120C2
:1003A0002C4B19680868B0E8F04F80F30988BFF358
:1003B0006F8F4FF0000080F311887047000000003D
:1003C00008480068006880F308884FF0000080F358
:1003D000148862B661B6BFF34F8FBFF36F8F00DF33
:1003E00000BF00BF08ED00E0DFF80C00016841F439
:1003F00070010160704700BF88ED00E0EFF30980F5
:10040000BFF36F8F134B1A681EF0100F08BF20ED5B
:10041000108A20E9F04F106009B44FF0500080F3CB
:100420001188BFF34F8FBFF36F8F36F081F94FF014
:10043000000080F3118809BC19680868B0E8F04F23
:100440001EF0100F08BFB0EC108A80F30988BFF3CC
:100450006F8F70470CC00120EFF3058070470000DC
:100460000648804706480047FEE7FEE7FEE7FEE74E
:10047000FEE7FEE7FEE7FEE7FEE7FEE7A16A020809
:10048000890302082DE9F05F0546002092469B464D
:1004900088460646814640241BE02846414647469A
:1004A000224600F093FA53465A46C01A914110D39F
:1004B00011461846224600F07AFA2D1A67EB010819
:1004C0004F4622460120002100F071FA17EB000987
:1004D0004E41201EA4F10104DFDC484631462A4685
:1004E0004346BDE8F09F000000487047E8C9050892
:1004F000A0F14101192900D8203070470649074A68
:100500000868504343F239021044086040087047BD
:100510000149086070470000FCC101206D4EC641D2
:1005200070B5054601B90721541A241DB4F5B67FEC
:1005300009DD286800F036F9A04204DC2868401C78
:100540002860012070BD002C05DA2868401E286054
:1005500000F028F90444072094FBF0F0401C70BD23
:100560002DE9F04F89B01D468A468046002401AF30
:100570004FF0070B0192079057F8241011F8010B68
:1005800047F8241048B125280DD0BAF1010F06D93B
:1005900008F8010BAAF1010A5CE0641E5AE0002091
:1005A00009B0BDE8F08F11F8010B47F824100028BE
:1005B000F3D002264FF030095A284BD020DC4D28CA
:1005C00073D014DC442871D008DC2528DDD0412804
:1005D0002AD042282ED043283CD130E0462847D0AC
:1005E000472857D0482862D0492833D161E0523893
:1005F00008282FD2DFE800F0787AA6838A97A6A889
:100600006138192826D2DFE800F00D1318202E25B6
:100610003513255C252560642566256D25737525B4
:100620008B9BA0006AA000E070A0A9690091B4E0D3
:100630007DA000E088482969F8E788A007E069699B
:10064000642091FBF0F0133082E0E86880E0641CE5
:1006500047F82400002C8FDA002088F80000079962
:10066000A8EB01009CE7E8684FF02009009070E0DB
:100670007EA0ECE7686900F26C700090D5E9061284
:100680006846FFF74DFF0099642091FBF0F200FBF4
:1006900012105DE06869042600F26C700090D5E9E4
:1006A00006126846FFF73CFF53E010E048E0A868F8
:1006B0004EE0A8680C21173090FBF1F201FB12000C
:1006C00001E0E8690326401C42E02869FBE768680E
:1006D0003EE069A0BBE7A8680C2801DA67A0B6E78E
:1006E00067A0B4E767A0B2E769A0B0E728682FE089
:1006F00069A0ACE7A869012608BB072028E0D5E976
:100700000610401AC01D90FBFBF021E0686900F262
:100710006C700090D5E906126846FFF701FF17E0FC
:100720000126A86914E0A9695846891D91FBF0F2D9
:100730000BFB1211EA69511AC91D91FBFBF007E08E
:1007400056A084E758A082E70426686900F26C701E
:10075000009000218DF8181006A80A2113E0009AD5
:1007600092FBF1F301FB1322303200F8012D009AC5
:1007700092FBF1F2009232B901E000F8019D321EC5
:10078000A6F10106F9DC321EA6F10106E7DC5EE700
:1007900010F8011B0029FBD100994A1E0092002984
:1007A000F6DC54E781070CD1642190FBF1F201FBE8
:1007B000120151B94FF4C87190FBF1F201FB120024
:1007C00018B1002000F26D1070470120FAE7000018
:1007D00053756E004D6F6E0054756500576564006B
:1007E00054687500467269005361740053756E64F5
:1007F0006179004D6F6E6461790054756573646151
:1008000079005765646E6573646179005468757228
:10081000736461790046726964617900536174752B
:1008200072646179000000004A616E0046656200F2
:100830004D617200417072004D6179004A756E0021
:100840004A756C0041756700536570004F63740012
:100850004E6F760044656300ECC9050825612025CC
:1008600062202565202554202559000025592D2575
:100870006D2D2564000000000A000000414D0000BD
:10088000504D000025493A254D3A2553202570004A
:1008900025483A254D00000009000000256D2F2550
:1008A000642F25790000000025483A254D3A25534C
:1008B0000000000010B5431A934209D2831888182B
:1008C00003E010F8011D03F8011D521EF9D210BDFE
:1008D00040EA01039B0703D009E008C9121F08C0C2
:1008E000042AFAD203E011F8013B00F8013B521E42
:1008F000F9D210BDD2B201E000F8012B491EFBD2A3
:1009000070470022F6E710B513460A46044619461A
:10091000FFF7F0FF204610BD30B505462A460B46CE
:1009200012F8010B13F8014B08B1A042F8D01CB12A
:10093000002802D06D1CF1E7284630BD421C10F89B
:10094000011B0029FBD1801A7047CBB203E001786C
:10095000994203D0401C521EF9D20020704730B596
:1009600004460020034600E05B1C934203D2E05C97
:10097000CD5C401BF8D030BD10B54843044617F09D
:10098000D9FA002805D00021002C02D0641E0155A0
:10099000FAE710BD70B5064608F062FC046805462B
:1009A0000A220021304600F021F82C6070BD202A78
:1009B00004DB203A00FA02F1002070479140C2F1B6
:1009C000200320FA03F3194390407047202A04DBE8
:1009D000203A21FA02F00021704721FA02F3D040B8
:1009E000C2F1200291400843194670472DE9F047B3
:1009F00091460F4680460446002614F8015B2DB14F
:100A0000FFF772FD0068405DC007F6D12B2D02D0C4
:100A10002D2D18D0641E4A463946204600F030F885
:100A200027B13968A14201D1C7F8008071054FF0A4
:100A300002040BD54042002803DD08F011FC0460DD
:100A4000A007BDE8F08746F48066E4E70028F8DAFE
:100A500008F006FC04606FF00040F2E7064C074D1A
:100A600006E0E06840F0010394E80700984710347E
:100A7000AC42F6D3FFF78CFC1CDF05086CDF0508E1
:100A80002DE9F05F82460078002715468B460AF173
:100A90000104B946302801D09DB113E014F8010BD0
:100AA0000127782803D0582801D045B10AE00DB1BC
:100AB000102D07D10027102514F8010B02E008259E
:100AC00000E00A250026B0460EE005FB080005FB05
:100AD00006F1012701EB10461FFA80F8B6F5803FBA
:100AE00000D3B94614F8010B294600F018F8002885
:100AF000EBDABBF1000F05D00FB1641E00E05446E5
:100B0000CBF80040B9F1000F06D008F0A9FB022194
:100B10000160C81EBDE8F09F48EA0640FAE73A289F
:100B200000D2303820F02002412A01D3A2F1370050
:100B3000884201D34FF0FF30704770B58C1810F821
:100B4000015B15F0070301D110F8013B2A1106D112
:100B500010F8012B03E010F8016B01F8016B5B1E2C
:100B6000F9D12B0705D40023521E0DD401F8013B07
:100B7000FAE710F8013BCB1A921C03E013F8015B73
:100B800001F8015B521EF9D5A142D8D3002070BDF7
:100B900002A1002004F06EFFFEE700005B666174B6
:100BA000616C5D204275734661756C740D0A0000BE
:100BB00011B90AB1032070470020704710B517F033
:100BC00023FE002010BD000010B50022084909488E
:100BD00006F0B8FB04460849064806F0A6FB0443A5
:100BE00001D0032010BD17F017FE002010BD00003B
:100BF0005CF7012080EA01205CEF012010B511B103
:100C000018B90A680AB1032010BD096817F0D6FDAB
:100C1000002010BD10B509B1012A01D0032010BD7C
:100C2000096817F015FE002010BD00000C4A10B531
:100C3000D2F8BC220AB110B909B1032010BDD2F814
:100C400014220AB1012010BD0A460146044806F0EC
:100C500079FB0028F7D1BDE81040014806F0ECBB55
:100C600080EA0120014800F05FBC0000AC030020D6
:100C7000014800F059BC00004C030020014800F07E
:100C800053BC000074C30120014800F04DBC0000BB
:100C900014C3012001681823CAB2103AB2FBF3F260
:100CA000054B6FF30901032A9B5CC36500D9091D3D
:100CB0008165084670470000FC8C050810B50146A8
:100CC00000208B698A6A4FF0C07453B1B3F5005F9E
:100CD00015D072B1012A0CD0022A0AD0032A09D1F8
:100CE00004E01AB1012A06D0022A03D1C96AC90157
:100CF00000D5012010BDC96AA142FAD010BD002A5A
:100D0000F7D0012AF2D0022AF3D0032AF3D010BD83
:100D100030B50468256825F4802525600468636083
:100D20008368402B036803D099600068C26030BDBF
:100D30009A600068C16030BD70470000F0B50023C4
:100D40001A464FF0004500BF016903EB830401EB35
:100D5000C4010A604A608A60CA600A620D604A6221
:100D6000466946F480464E604E6826F000464E6066
:100D700000EB8306032BB16405D22827066907EB35
:100D8000C404344400E00469CC605B1C042BDBD356
:100D9000C26502668266C26682650169006800F506
:100DA0008050C160F0BD38B50446006800F5805041
:100DB000816941F480118161206800F5805080696B
:100DC0000090012000F022FD2068009900F580507D
:100DD000816138BD014800F0B7BD0000A8CB0120FB
:100DE00070B5A4B00125002406468DF828408DF882
:100DF00004501494A8038DF8564005908DF81050B7
:100E000002948DF80E508DF85440C0108DF811509A
:100E10008DF81F408DF8204006908DF81E508DF8FB
:100E20000F4009948DF81C4012948DF84C408DF8B9
:100E300055406946304600F069F98DF881508DF8CB
:100E400080408DF8824028041B908DF86850800106
:100E50001F908DF870508DF8885040128DF87150A9
:100E60001E941D908DF87250239421948DF8895012
:100E700019A93046199400F0E9F824B070BD00209B
:100E8000704701F08DBA000010B5024800F0FEFF77
:100E9000002010BDA8CB012013460A4610B501461C
:100EA000034800F047FF002801D04FF0FF3010BD8D
:100EB000A8CB012013460A4610B50146034801F0AD
:100EC000E7F8002801D04FF0FF3010BDA8CB01207B
:100ED0002DE9F043836A1830914650F823208D683D
:100EE0001C4617680026002F6BDB00EB83077F6929
:100EF000BFBBD5F800C00127C2F808C0D2F804C0B3
:100F0000D5F804806FF30C0C4CEA080CC2F804C04E
:100F100091F800C05FEACC7C09D0D2F800C0D1F8CB
:100F200014802CF4400C4CEA080CC2F800C091F874
:100F300000C05FEA8C6C09D5D2F800C0D1F81080EF
:100F40002CF0406C4CEA080CC2F800C00978490744
:100F500003D5116841F080011160116841F08051A2
:100F600048E02EE0116821F0005111601168B9F1DC
:100F7000000F02D041F0804101E021F0804111607A
:100F80005B1C042B00D31B1F50F823201168002981
:100F900003DB00EB83014969B1B150F82420002143
:100FA0000DE000BFBFF35F8F136823F000431360B1
:100FB000641C042C00D3241F491C50F82420B9427F
:100FC000F0D30220BDE8F083116821F08051116058
:100FD000AD68296891605168D5F804C06FF30C01C1
:100FE00041EA0C015160761C7F1CBFF35F8F1168D2
:100FF00041F000411160A9680029B3D11168B9F12D
:10100000000F02D041F0804101E021F080411160E9
:10101000116841F00051116050F82410BFF35F8F48
:101020000A6842F000420A6000EB8302416A5161A3
:10103000EFF31081012282F310880361826A761C2B
:10104000324481F3108882620020BBE770B50C4601
:101050000168054601F5805188692B4A1040227BC2
:10106000EAB30022637B920642EA4362637FBBB32A
:101070005FF0000342EA0352A37B42EA43526369F2
:101080001A43237F42EAC312A37F42EA8312236AF0
:101090001A4394F8243042EA830202438A612868A2
:1010A00000F580508669012000F0B0FB286800F54B
:1010B00080508661A169A06822790843216941EACC
:1010C0004261084394F8251040EAC110A16A40EA41
:1010D00081002168084340F40001286801E00FE026
:1010E00010E000F580500160286800F58050046829
:1010F000012000F08BFB286800F58050046070BD73
:101100000122AFE70123B5E7233FDEF870B502689F
:1011100005460C4610683C49A37B0840A16841EA9B
:101120004361237C002B64D00023667CDB05002E0A
:1011300061D0002643EA86531943E37F41EA034125
:1011400063691943A37FEBB35FF0000341EA4331C6
:10115000237F41EA0331A3691943237941EA8321BB
:1011600094F820307BB3002341EA4321E37B41EA3A
:10117000C311636A194394F8283041EA031101430B
:10118000116028680668012000F040FB28680660AE
:101190002A6890694FF641710840A36C216D41EABD
:1011A000034194F84C3063B3002394F85560DB019D
:1011B000012E00D0002643EAC603194394F85630A6
:1011C000012B01E019E01AE000D0002341EA83017D
:1011D00094F85430012B00D0002341EA430101432D
:1011E000916128688469012000F010FB28688461FF
:1011F00070BD012399E701269CE70123A6E701239F
:10120000B2E70123D1E700000F8120FD2DE9F8436B
:10121000044600200090A56E4FF0010804EB850005
:10122000E76E866C1EE0306A30B9684600F0E2FD79
:10123000009880B33062B060B8F1000F12D0A06D9A
:10124000002860692BD040F480407060306840F026
:10125000004030606D1C042D00D32D1F04EB850071
:101260007F1E866C17B1B8F1000FDCD1E06EB8427A
:101270000FD0E81C00F00300BFF35F8F216900EB83
:10128000800001EBC001206800F580508160C4E956
:101290001A57BDE8F883FFE74FF00008E2E701497D
:1012A0000843D2E70040008002A1002004F0E2FBE6
:1012B00072B6FEE75B666174616C5D204572726FA9
:1012C000725F48616E646C65720D0A0013480168B4
:1012D00089050FD5016821F400710160016841F4AE
:1012E00000610160016821F400610160016841F45E
:1012F00000710160016849050FD5016821F4806122
:101300000160016841F480510160016821F480515D
:101310000160016841F4806101607047003C024057
:10132000064A136823F4407313601368136013684C
:1013300043F001031360017070470000103C02404D
:10134000094910B50C6824F440740C600C6844F42E
:1013500040740C600C6844F001040C600260BFF340
:101360006F8F436010BD0000103C0240074A1368B5
:1013700023F440731360136843F48073136013689D
:1013800043F001031360018070470000103C0240ED
:10139000074A136823F440731360136843F400731F
:1013A0001360136843F0010313600160704700008D
:1013B000103C024017490868C206174805D5C269A3
:1013C00042F01002C26110220A600A68920605D536
:1013D000C26942F00802C26120220A600A6852060D
:1013E00005D5C26942F00402C26140220A600A685F
:1013F000120605D5C26942F00202C26180220A606B
:101400000A68920705D5C26942F02002C261022033
:10141000086070470C3C02400800002070B511497C
:1014200004460020C86100F0BBFF06460E4D09E0EF
:10143000601C07D024B100F0B3FF801BA04201D98B
:10144000032070BD2868C003F2D42868C00701D00B
:1014500001202860286810F0F200F2D0FFF7AAFF00
:10146000012070BD080000200C3C02402DE9F04135
:101470000446876D00F094FF064694F83500002579
:10148000022806D08020606584F834500120BDE831
:10149000F0812068016821F016010160206841692F
:1014A00021F080014161206C08B9A06C20B1206856
:1014B000016821F0080101602068016821F0010144
:1014C00001600CE000F06CFF801B052807D920208C
:1014D0006065032084F8350084F83450D7E720682D
:1014E0000068C007EED194F85C103F208840B860D7
:1014F000012084F8350084F834500020C7E790F8C4
:101500003510022903D08021416501207047052153
:1015100080F835100068016821F0010101600020A9
:101520007047406D704700002DE9F84304464FF0C6
:101530000009CDF8009063484FF41651A56D00687E
:10154000B0FBF1F72E6894F85C10082000FA01F166
:1015500031420FD021680A6852070BD50A6822F081
:1015600004020A6094F85C108840A860606D40F046
:101570000100606594F85C104FF0010808FA01F072
:10158000304208D021684969090604D5A860606D19
:1015900040F00200606594F85C10042088403042FE
:1015A00008D021680968890704D5A860606D40F0FB
:1015B0000400606594F85C1010208840304218D018
:1015C00021680968090714D5A860206801684903E3
:1015D00004D50068000308D5A16C07E00168C905BF
:1015E00003D4016821F008010160216C09B1204693
:1015F000884794F85C1020208840304231D0216820
:101600000968C9062DD5A86094F83500052820681A
:10161000016806D0490347D5006800031DD4616CFA
:101620001CE021F0160101602068416921F0800171
:101630004161206C08B9A06C20B12068016821F0DC
:101640000801016094F85C103F208840A86084F88D
:10165000358084F83490216D1FE0E16B09B120469C
:101660008847606D00282BD0606DC00714D005201E
:1016700084F835002068016821F0010101600098BC
:10168000401C0090B84203D820680068C007F6D11B
:1016900084F8358084F83490E16C002910D001B0D2
:1016A0002046BDE8F04308470168C905D5D4016864
:1016B00021F01001016084F8358084F83490CCE783
:1016C000BDE8F883340000202DE9F041044600F025
:1016D00067FE06465CB1022084F83500002584F8D8
:1016E00034502068016821F0010101600DE0012003
:1016F000BDE8F08100F054FE801B052805D92020AC
:101700006065032084F83500F2E720680068C007B0
:10171000F0D12268116820480140D4E90103184340
:10172000D4E903363343184363691843A369184364
:10173000E3691843236A18430843616A042903D103
:10174000D4E90B1319430843106020684069666AA6
:1017500020F0070130460E43012704280CD1A06A6F
:101760000643E06A40B12046FFF7A8FA20B14020C6
:10177000606584F83570BAE7206846612046FFF757
:1017800089FA94F85C203F2191408160656584F876
:1017900035700020ACE700003F8010F02DE9F041EB
:1017A0000446866D90F83400002501280DD00120F4
:1017B00084F8340094F835700020012F07D084F8A5
:1017C000340002252846BDE8F0810220FBE702270D
:1017D00084F8357060652046FFF79AFA94F85C103B
:1017E0003F208840B0602068016841F01601016028
:1017F000206C20B12068016841F008010160206878
:10180000016841F001010160DCE7000070B50446A9
:1018100000F0C6FD0546601C02D004480078044470
:1018200000F0BEFD401BA042FAD370BD280000208E
:1018300010B500F00BF8000605D503484068BDE878
:10184000104026F0A7BB10BD4C000020D0F88C0043
:101850007047D0F888007047002970D0026812687D
:10186000C2F3001281F828200268126802F06002B8
:101870004A620268126842F34022521C81F820201A
:1018800002681268C2F30042CA770268126842F323
:101890004032521C8A7702681268C2F300320A771B
:1018A0000268126802F400628A610268126802F437
:1018B00080424A610268126842F38052521C4A74A4
:1018C0000268126842F3C052521C0A74026812681D
:1018D000C2F3C012CA730268126802F460228A60FE
:1018E00002681268C2F380220A7102681268C2F3A9
:1018F00040628A7302689269C2F3400281F8542000
:101900000268926942F3C012521C81F84C200268AE
:10191000926902F030020A6502689269120C8A64C8
:1019200002689269C2F3800281F8562000688069DB
:10193000C0F3C00081F8550000207047FFE7012088
:10194000FBE7D0F8840070472DE9F04704460068B3
:1019500050F8387FD0F8DC5FD0F8E46FDFF8B4904F
:10196000D9F8008000F6C870690606D5710604D55E
:1019700029494161204600F061FA05EA0600C007E6
:1019800008D020684FF0011100F5805041612046D9
:1019900000F074FB280423D5300421D5D4F8880046
:1019A00040F00800C4F88800A804206800F58050C2
:1019B0000CD54169194A1140C4F88C10C16921F451
:1019C000C031C161E020C4F8840006E0426948F2F9
:1019D00080610A40C4F88C2041612046FFF728FF4F
:1019E00038070BD52068C06A00F06000C4F8940086
:1019F000204600F02BF90020C4F894005FEA08307C
:101A000006D54FF40021C9F80010204600F03EFB37
:101A1000BDE8F087143C01404000010000207E003A
:101A2000F8B5040003D0D4F8840010B107E0012019
:101A3000F8BD2020C4F88400204600F093F8454803
:101A40000025016841F480410160006800F4804095
:101A500000904148016821F4000101600168A2681A
:101A6000114301600068206800F58050016841F072
:101A70000101016000F094FC06464FF4FA770BE098
:101A800000F08EFC801BB84206D90420C4F8880000
:101A9000E020C4F88400CAE7206800F580500068A0
:101AA000C007EDD12046FFF79BF90021E06801EB6C
:101AB000810200EBC200056045608560C56004EBF3
:101AC00081039861036843F480130360032905D2FE
:101AD0002826E36806EBC2021A4400E0E268C2600E
:101AE000026842F440020260491C0429DED3A56268
:101AF0002068E16800F5805001612046FFF71EF97B
:101B00006068164A818811640178C37841EA0361EC
:101B1000837840781B0443EA002001435164206825
:101B2000C16B41F40271C1632068D0F80C110C4AFA
:101B30001143C0F80C112068D0F8101141F40311C2
:101B4000C0F81011C4F888501020C4F88400002098
:101B5000F8BD0000443802400438014000800240D3
:101B600060000200F0B587B0044614216846FEF715
:101B7000C8FE3149206888425BD1304800240168A2
:101B800041F000710160016801F000710591016888
:101B900041F080610160016801F080610591016898
:101BA00041F000610160016801F000610591016888
:101BB00041F004010160016801F004010591016830
:101BC00041F001010160016801F001010591016826
:101BD00041F0400101600068022500F040000590DE
:101BE0003220CDE9000502AA03260B2782E8D000A7
:101BF0006946134800F0D6FA8620CDE9000502AA0E
:101C0000694682E8D0000F4800F0CCFA4FF4D0408B
:101C1000CDE9000502AA694682E8D0000A4800F032
:101C2000C1FA002205213D2000F0B4FC3D2000F067
:101C3000A4FC07B0F0BD0000008002403038024034
:101C400000080240000002400018024070472DE9E1
:101C5000F84F4FF000075FEA01090446B84604D088
:101C6000D4F8840040285AD105E054F8880F40F099
:101C70000100206053E0E66D4FF0000B04EB86009E
:101C8000856CE06EC0F1040A36E02868C00503D513
:101C9000E869A067A86960672868800501D4E06FDB
:101CA00010B32868800503D5C4F860B0C4F864B0E8
:101CB0002868C0F30D4000902868C00503D5286847
:101CC0004FF001082067AA682A6204F18001081F0A
:101CD000009B00F0B9F8206E401C2066616E0098F1
:101CE00008446066C5F820B0761C042E00D3361F69
:101CF00004EB86007F1C856C2868002804DB5745B0
:101D000002D2B8F1000FC0D0E06EC019E06602D078
:101D10002046FFF77BFAE665B8F1010F02D00120FB
:101D2000BDE8F88FE16FC9F800100020C4F87CB05E
:101D3000F6E700002DE9F04198460368054618696A
:101D400000F01C044FF6FF7000EAC1204FF4F86168
:101D5000204301EA8211014321F0020040F0010416
:101D60001C6100F01DFB06464FF480370AE000BFFF
:101D700000F016FB801BB84202D30120BDE8F081C1
:101D800028680469E007F3D12868406981B200201F
:101D9000C8F80010F2E700002DE9F04700F118053F
:101DA0008046D5E90A64012719E000BF05EB8409E4
:101DB000761ED9F81400C0B1D8F80C1004EB8402D8
:101DC00051F8321000290DDB00F05EF90021641C8F
:101DD000C9F81410042C00D3241FC5E90A640EB1FD
:101DE000002FE3D10020BDE8F087641C042CF6D35B
:101DF000241FF4E71CB504460D4820F005FD030040
:101E00000FD003F1200020600A4818614FF4C06130
:101E10002068CDE9000100214122084626F028FB78
:101E20001CBD054901200870002020601CBD000079
:101E30001C8D0508F58A04084C0000200148406804
:101E400026F0A8B84C00002010B5002442F8204D20
:101E50001481538104681CB10C6822600A6004E09C
:101E60000260FBE701891944018100680028F9D16B
:101E700010BD10B519B1D0F88420102A01D001206E
:101E800010BDFFF743F9002010BD000070B50546F6
:101E90000068006920F01C0401F034FA0C49884203
:101EA00002D244F0080410E00A49884202D244F009
:101EB0000C040AE00849884207D30849884202D244
:101EC00044F0040401E044F010042868046170BD8B
:101ED000C00E16020087930300E1F50580D1F008DB
:101EE00070B50446D0F88400102801D0012070BDE0
:101EF0002020C4F884000120A0650420E06620466C
:101F0000FFF784F9206805680120FFF77FFC20684F
:101F10000560206800F58050816941F400518161BD
:101F2000206800F58050816941F0020181612046FE
:101F3000FEF739FF2068016841F008010160206860
:101F400005680120FFF762FC2068056020680168D1
:101F500041F004010160206800F58050C169044A25
:101F60001143C1614020C4F88400002070BD00000E
:101F7000C1A0010070B50446D0F88400402801D00B
:101F8000012070BD2020C4F88400206800F5805036
:101F9000C1691F4A1140C161206800F58050816904
:101FA00021F400518161206800F58050816921F0A1
:101FB000020181612068016821F00401016020684C
:101FC00005680120FFF722FC206805602046FEF727
:101FD000EAFE2068016821F00801016020680568B8
:101FE0000120FFF713FC20680560002004EB80014E
:101FF000896C4A6842F000424A60401C0428F5D3CC
:102000000020A0651020C4F88400002070BD0000EE
:102010003E5FFEFF10B5044621B1D4F8840040288D
:1020200005D010E054F8880F40F001000AE0486B3A
:10203000E06301222046FEF74BFF30B154F8880FD1
:1020400040F002002060012010BDBFF34F8FA06A56
:10205000401CA062042801D3001FA062206800F584
:1020600080504169490706D504214161206800215B
:1020700000F580504160002010BD000001488068DC
:1020800025F088BF4C00002026F082BC704700007D
:102090002DE9F04106680546306900F01C044FF652
:1020A000FF7000EAC1204FF4F861204301EA821179
:1020B000014398B241F0030470612868046100F0A4
:1020C0006FF906464FF480370AE000BF00F068F968
:1020D000801BB84202D30120BDE8F0812868046962
:1020E000E007F3D1F8E700000348016841F0004140
:1020F0000160002070470000103C02402DE9F047CD
:102100001B4E05461446307E1F468946012808D0DE
:10211000012030764CF250384046FFF77FF918B175
:1021200014E00220BDE8F0879DB1012D16D0022DEC
:1021300019D022463B464846FFF702F94046FFF7D2
:102140006DF90C490A6822F001020A60002131761B
:10215000E8E7E1B24846FFF7E3F8EFE7A1B2484607
:10216000FFF704F9EAE721464846FFF711F9E5E7EA
:1021700008000020103C0240074900200A68002A9D
:1021800009DA054A054B0C3A1360054B13600968E0
:10219000002900DA01207047103C02402301674506
:1021A000AB89EFCD2DE9F84FDFF8BCA10022012566
:1021B00003264FF00F090AF1040BAAF1040E00BF29
:1021C0000B6805FA02F42340A34270D10F7907F09F
:1021D0000307012F01D0022F16D187684FEA42086A
:1021E00006FA08FC27EA0C07D1F80CC00CFA08FC28
:1021F0004CEA070CC0F808C04768A7430C79C4F341
:10220000001494403C4344600C79E443A4070AD092
:10221000C4684FEA420C06FA0CF7BC438F6807FA11
:102220000CF72743C7600C7904F00304022C12D189
:10223000D40800EB840CDCF820405707FF0E09FAA5
:1022400007F824EA0804D1F8108008FA07F848EAE9
:102250000408CCF8208004684FEA420C06FA0CF718
:10226000BC430F7907F0030707FA0CF72743076011
:102270004C6814F4403F70D03C4C276847F48047CA
:102280002760246822F0030704F480440094384C4B
:1022900007EB040CDCF8084897074FEA177809FAAF
:1022A00008F7BC43334FB84202D1002724E054E082
:1022B000314FB84201D101271EE0304FB84201D161
:1022C000022719E02E4FB84201D1032714E02D4F09
:1022D000B84201D104270FE02B4FB84201D10527A6
:1022E0000AE02A4FB84201D1062705E0284FB8423C
:1022F00001D1072700E0082707FA08F72743CCF8A1
:102300000878DAF800405746D1F804C09C435FEAE9
:10231000CC2C00D51C433C60DBF800405F46D1F874
:1023200004C09C435FEA8C2C00D51C433C60DEF863
:1023300000407746D1F804C09C435FEA8C3C00D54E
:102340001C433C60084F083F3C68D1F804C09C43E4
:102350005FEACC3C00D51C433C60521C102AFFF4C1
:102360002FAFBDE8F88F0000083C01404438024020
:10237000003001400000024000040240000802401A
:10238000000C0240001002400014024000180240FD
:10239000001C02400AB1816170470904FBE700009C
:1023A000014880687047000028000020014800684C
:1023B00070470000107AFF1F014800687047000056
:1023C000147AFF1F0148006870470000187AFF1F49
:1023D00070B5040013D021684CF6CC400860216829
:1023E00045F255500860D4E9000141602168A068B9
:1023F0008860FFF7D5FF054641F601060DE0012094
:1024000070BD00BFFFF7CCFF401BB04205D920686C
:10241000C068800701D0032070BD2068C0688007B5
:10242000F0D121684AF6AA200860002070BD00683B
:102430004AF6AA2101600020704700000248816826
:102440000278114481607047280000200B4810B5C5
:10245000016841F400710160016841F4806101602C
:10246000016841F480710160032000F0B3F80F208F
:1024700000F006F800F058F8002010BD003C0240C3
:1024800030B50546224887B00024016841F01001AC
:102490000160006806A900F01000009001A800F09B
:1024A00011FF0498A8B100F033FF400019491A4AFF
:1024B000B0FBF1F11948491E026040F2E732C0E971
:1024C0000324C0E90114846102F04CF8040003D035
:1024D00015E000F01DFFE9E7104802F097F804004E
:1024E0000DD1362000F049F8102D07D200222946E0
:1024F000362000F04FF80A48056000E00124094A40
:102500000E21064802F0C1F907B0204630BD000098
:102510004038024040420F0000100040D4C3012068
:102520002C000020116C02080C4882B0016841F4B4
:1025300080410160006800F4804000900748001F5F
:10254000016841F0805101600068002200F0805075
:1025500000900F21901E02B000F01CB844380240D9
:10256000002809DB00F01F02012191404009800092
:1025700000F1E020C0F880127047002809DB00F06D
:102580001F02012191404009800000F1E020C0F8C5
:1025900000117047F0B40E4B1B680C46C3F30223C6
:1025A000C3F10705042D00D90425191D072901D2FF
:1025B000002300E0DB1E012606FA05F1491E21403A
:1025C00099409E40761E16403143F0BC06F038BE5E
:1025D0000CED00E0064900F0070208684FF6FF0323
:1025E000184040EA0220034A104308607047000088
:1025F0000CED00E00000FA05704700684162002021
:102600007047F0B50368586A39B19C6A4FF4827616
:1026100000EB144400204D1E0AE040EA024098629C
:102620000FE006EB8007DF59401C04EB1744C0B2F3
:10263000A842F6D344EA02404FF4807202EB8101D3
:1026400058500020F0BDD0F8E00405F09EB901EB31
:10265000C10200EB8202D0F8E004126A05F0EFB884
:1026600001EBC10200EB8202D0F8E004D2F8602254
:1026700005F041B9D0F8E00405F089B90A0601F087
:102680000F0101EBC10100EB810101D5143101E023
:1026900001F51571006806F073B870B504460B06B5
:1026A00001F00F0000EBC00104EB81014FF00102CB
:1026B0004FF0000502D54A75143103E081F85552F8
:1026C00001F51571087094F89404012808D084F875
:1026D0009424206805F06EFD84F89454002070BDA9
:1026E000022070BD70B5044601F00F0022799042BF
:1026F00001D9012070BD0B0601F00F0101EBC101F2
:1027000004EB81014FF001024FF0000502D54A753C
:10271000143103E081F8555201F515718D70087080
:1027200094F89404012808D084F89424206805F0D3
:10273000B3FE84F89454002070BD022070BD01F0F7
:102740000F0101EBC10100EB8100D0F86802704776
:102750002DE9F04104460F0601F00F0000EBC00127
:1027600004EB81014FF001064FF0000502D54E75D4
:10277000143103E081F8555201F51571C2F30A02D4
:1027800008708A600B714A7802B14883022B00D12D
:102790004D7194F89404012809D084F89464206859
:1027A00005F056FC284684F89454BDE8F0810220D8
:1027B000FBE710B501F00F0404EBC40100EB81014D
:1027C000C1E998230023C1F8683281F8553281F8B5
:1027D0005442837901F51571012B00D1CA618279C8
:1027E000006805F0B1FE002010BD70B504460D462E
:1027F00001F00F002179884201D9012070BD29061E
:102800004FF000064FF0010206D500EBC00104EBCB
:1028100081014A75143107E005EBC50104EB810124
:1028200081F8556201F515718A70087094F8940466
:10283000012807D084F89424206805F059FE280761
:1028400002D007E0022070BDA17904F29C4220680A
:1028500005F0F6FD84F89464002070BD10B501F019
:102860000F0404EBC40100EB8101C1E9082300233C
:102870008B6201234B7501F8144F8379012B00D132
:10288000CA618279006805F05FFE002010BD00007B
:102890002DE9FC5F05680446284606F00DF800287F
:1028A0007DD1206806F034F8002878D0D5F80808E3
:1028B000C0F30D20C4F8D404206806F029F880077E
:1028C00004D52068416901F002014161206806F0E9
:1028D0001FF8C10604F29C40009034D5206881693D
:1028E00021F0100181612F6A07F00F0000EBC0009A
:1028F00004EB8006C7F3434006F51576022802D0A4
:10290000062811D01AE047F6F070074216D0C7F338
:102910000A1217462846F16805F0FEFFF0683844B1
:10292000F0607069384408E008222846009905F0F4
:10293000F3FF7069C7F30A11084470612068816968
:1029400041F010018161206805F0E2FF00034FF0C3
:10295000080B4FF0000A4FF001097CD500262068D3
:1029600005F0B5FF074674E0F80770D0F1B22068B3
:1029700005F0C6FF8046C00707D005EB4611C1F839
:10298000089B3146204602F04DFE5FEA087024D5D0
:1029900005EB4611C1F808BB2068016C00E023E29A
:1029A00000EB46100191D0F8082BFB4B994205D95A
:1029B000110403D54FF40041C0F8081B204600F075
:1029C000F0FAF5490198884207D9A079012804D185
:1029D00020680121009A05F033FD5FEAC86004D544
:1029E00005EB46111020C1F8080B5FEA88701DD571
:1029F0006869000605D5D5F8040840F48061C5F87B
:102A0000041806EBC60004EB800090F8571200F59E
:102A10001570012905D180F803A0F1B2204600F01D
:102A2000E9F905EB46110220C1F8080B5FEA88605E
:102A300004D505EB46102021C0F8081B5FEA88404A
:102A400005D505EB46104FF40051C0F8081B7F0870
:102A5000761C002F88D1206805F05AFF40036ED500
:102A6000206805F02DFF0746002666E0F80762D0D3
:102A7000F1B2206805F032FF8046C00723D006F08F
:102A80000F01D5F8342809FA01F18A43C5F8342832
:102A900005EB4611C1F80899A07901280FD106EB82
:102AA000C60004EB8000D0E907211144016236B969
:102AB000606A20B920680121009A05F0C1FCF1B2DA
:102AC0002046FFF7C4FD5FEA087003D505EB461109
:102AD000C1F808B95FEAC86004D505EB46111020BB
:102AE000C1F808095FEA486004D505EB46104021AB
:102AF000C0F808195FEA887016D53146284605F0F7
:102B0000B0FE06EBC60004EB8000C17D1430012945
:102B100005D180F803A0F1B2204600F067F905EB7B
:102B200046110220C1F808095FEA086003D5314662
:102B3000204602F0DDFD7F08761C002F96D120682C
:102B400005F0E6FE002811DAD5F8040820F00101AE
:102B5000C5F8041894F8CC0401282BD0204600F0C6
:102B600005FA2068416901F000414161206805F0E3
:102B7000CFFE00050BD5D5F80808C00702D02046C7
:102B800000F038FA2068416901F400614161206871
:102B900005F0BEFEC00467D5D5F8040820F001009A
:102BA000C5F804081021206805F05BFE00214FF6EF
:102BB0007F3220E084F8CCA400212046FFF71CFDE2
:102BC000CFE700BF05EB4110C0F80829D0F8003965
:102BD00023F40013C0F80039C0F8082BD0F8003BEC
:102BE00023F40013C0F8003BD0F8003B43F000632F
:102BF000C0F8003B491C20798842E3D8D5F81C086E
:102C000040F00111C5F81C18E07B002828460DD0C3
:102C1000D0F8840840F00B01C5F88418D5F84408B2
:102C200040F00B012846C5F844180DE0D0F8140810
:102C300042F22B010843C5F81408D5F8100840F0FB
:102C40000B012846C5F81018D0F8000820F4FE61E2
:102C5000C5F80018A1792068009A05F0F1FB2068FA
:102C6000416901F480514161206805F051FE800402
:102C700015D5206805F02CFA206805F010FEE071EB
:102C800000F040FB0146E279206805F0A3FE2046F3
:102C900000F056F92068416901F400514161206853
:102CA00005F036FE000707D5204600F063F92068DE
:102CB000416901F008014161206805F029FE000624
:102CC00016D5A86920F08001A96101260DE000BF9A
:102CD00006EBC60004EB800090F85702012803D1F0
:102CE000F1B22046FFF7CAFC761C2079B042EFD83B
:102CF000206805F00DFEC0021FD501264F4614E0E6
:102D000005EB4610D0F8000906EBC60104EB810183
:102D10000A7E012A08D1002806DACF75F0B240F009
:102D200080012046FFF7AAFC761C2079B042E7D844
:102D30002068416901F480114161206805F0E8FDD7
:102D4000800234D501204A4629E000BF05EB40113E
:102D5000D1F8001B00EBC00304EB830393F8586227
:102D6000012E1BD1002919DA94F8D464C1F3004173
:102D700006F001068E4211D183F85722A96941F06D
:102D80008003AB616969090608D4D5F8040840F4EA
:102D90000070C5F8040805E00A30544F401C217942
:102DA0008142D3D82068416901F400114161206853
:102DB00005F0AEFD400007D52046FFF744FC206833
:102DC000416901F080414161206805F0A1FD4007A3
:102DD0000AD520684568680702D52046FFF74AFCF7
:102DE0002068416829434160BDE8FC9FD0F8E004B9
:102DF00004F023BED0F8E00404F033BEF8B50400BC
:102E000005D094F895042668002510B106E001204D
:102E1000F8BD84F89454204600F056F8032084F856
:102E20009504B6F1A04F00D1A571206805F002FB12
:102E3000207C8DF8000094E80F0005F057F9022679
:102E4000B8BB0021206805F086FD90BB002001275B
:102E50000DE000BF00EBC00104EB81014F75087568
:102E6000C8850D76CD610D62401CC0B24D622179DE
:102E70008142EFD8002011E000EBC00104EB81019A
:102E800081F8555281F8540281F85852C1F85C52C9
:102E9000C1F86052401CC0B2C1F86452217981422D
:102EA000EAD8207C8DF8000094E80F0005F004FAC1
:102EB00010B184F89564AAE7657484F89574206865
:102EC00005F0ECF90020F8BD10B586B004461421D9
:102ED0006846FDF716FD17492068884227D1164C31
:102EE0000020216841F002012160216801F0020107
:102EF00005914FF4404100910221CDE901100320DA
:102F000003900C20049069460C48FFF74BF92068A9
:102F100040F0005020602068002200F00050059032
:102F200005214D20FFF736FB4D20FFF726FB06B0AD
:102F300010BD000000000440303802400004024090
:102F400070B50446C079012570B1022801D0FEF7A2
:102F5000ABF92946D4F8E00404F0F2FDD4F8E0041B
:102F6000BDE8704004F0A6BD0025F2E7D0F8E0040B
:102F700004F0CFBDD0F8E00404F0D5BD10B5044690
:102F800090F8940401280AD0012084F89404617414
:102F9000206805F00EFD002084F8940410BD022086
:102FA00010BDD0F8E02400F29C41104604F0D4BDDE
:102FB00010B50446006894F89414012909D0012141
:102FC00084F89414C168490609D5617B012902D0AF
:102FD00005E0022010BD816B41F4803181632068DF
:102FE00005F01DFC206805F04BF9002084F89404DE
:102FF00010BD000010B50446D0F8E00404F0EEFD6A
:103000002068D0F8001E41F00101C0F8001EE07AEF
:10301000002804D00248016841F00601016010BD9B
:1030200010ED00E0034908B500200862024800687E
:10303000009008BD00000E4200700040034908B532
:103040000120086202480068009008BD00000E429E
:10305000007000402DE9F843054600684FF0010973
:10306000C1074FF0000601D1400727D5DFF80C81DA
:10307000C8F86860FFF794F90746414C05E000BFC7
:10308000FFF78EF9C01B022857D820680001F7D43B
:1030900068688101287A41EA007039498431086002
:1030A000C8F86890FFF77CF9074604E0FFF778F965
:1030B000C01B022841D820680001F7D52878800776
:1030C00052D52F484030016841F0805101600068BE
:1030D0002C4C00F080500090206840F480702060FC
:1030E000FFF75EF9074604E0FFF75AF9C01B022814
:1030F00023D82068C005F7D5214C7034206810F41F
:10310000407020D0A98901F4407181421BD0206811
:103110001D4920F44070C1F800900E6020602068C6
:10312000C00710D0FFF73CF9064641F2883707E0A8
:10313000FFF736F9801BB84202D90320BDE8F883B7
:1031400020688007F4D5E9680D48C1F301220830F2
:10315000032A0BD0016821F4F81101602068A989C5
:10316000C1F30B01084320600020E7E70268074B2A
:1031700022F4F81219400A430260EFE700004742C8
:103180000038024000700040400E4742FFFCFF0F35
:103190002DE9F0470E46050065D0DFF81481D8F818
:1031A0000000F7B200F00700B04207D288F80070C4
:1031B000D8F8000000F00700B04254D128683D4C18
:1031C000810712D5400703D5206840F4E050206005
:1031D0002878000703D5206840F46040206020680C
:1031E000A96820F0F000084320602878C0072DD09F
:1031F000304968680839012812D0022813D0032802
:1032000011D00968890700292DDA216821F003010E
:1032100001432160FFF7C4F8814641F2883A0EE08D
:1032200009688903EFE709688901ECE7FFF7B8F857
:10323000A0EB0901514502D90320BDE8F0872068C1
:10324000696800F00C00B0EB810FEFD1D8F80010E6
:10325000404601F00701B14207D90770006800F04D
:103260000700B04201D00120E7E72878400705D5E4
:103270002068E96820F4E0500843206028780007BF
:1032800006D52068296920F4604040EAC10020602A
:1032900000F05EF82168084AC1F30311515CC84090
:1032A0000649086006480068FFF7EAF80020C4E70E
:1032B000003C024008380240048D0508340000201C
:1032C0002C0000200F2202600C4A136803F0030355
:1032D0004360136803F0F0038360136803F4E05362
:1032E000C36012684FF4E05303EAD202026104485B
:1032F000006800F0070008607047000008380240CE
:10330000003C024001480068704700003400002083
:103310000448054900680968044AC1F38221515CE8
:10332000C84070473400002008380240148D05085A
:103330000448054900680968044AC1F34231515CF8
:10334000C84070473400002008380240148D05083A
:10335000154810B5006810F00C02144813D0411045
:10336000042A0FD0082A0ED10F4C241F226823688C
:1033700002F03F025B0207D52068C0F38810A0FB73
:10338000010106E0084610BD2168C1F38811A1FBC8
:1033900000010023FDF776F82168C1F30141491CC3
:1033A0004900B0FBF1F010BD083802400024F400E1
:1033B0002DE9F84F04006ED02078DFF84C93C00759
:1033C000A9F104054AD009F104000168C1F38101A3
:1033D000012908D00068C0F3810002280AD1D9F879
:1033E0000000400206D52868800337D560680028B1
:1033F000E1D033E06068B0F5803F10D0B0F5A02F89
:10340000286810D020F480302860286820F48020BC
:1034100028606068A8B1FEF7C3FF06460DE0286883
:1034200040F48030F4E740F480202860F7E700BFE4
:10343000FEF7B6FF801B642873D828688003F7D591
:103440000CE0FEF7ADFF064605E000BFFEF7A8FF63
:10345000801B6428F0D828688003F7D42078DFF830
:10346000AC8280074FF0000A3ED5A748001D0168D6
:1034700011F00C0F08D00068C0F3810002280BD1B6
:10348000D9F80000400207D42868800716D5E06804
:10349000012800D112E033E1E068B8B10120C8F89A
:1034A0000000FEF77DFF064605E000BFFEF778FF4F
:1034B000801B0228C0D828688007F7D528682169B2
:1034C00020F0F80040EAC10028600DE0C8F800A034
:1034D000FEF766FF064604E0FEF762FF801B022847
:1034E0001FD828688007F7D42078000722D5864F98
:1034F00087486169703771B101210160FEF750FFA3
:10350000064604E0FEF74CFF801B022809D8386805
:103510008007F7D50EE0C0F800A0FEF741FF064691
:1035200005E082E0FEF73CFF801B02287DD838686A
:103530008007F7D42078400768D5DFF8CCB10027A2
:103540000BF13C0BDBF80000C0000BD4DBF80010E3
:1035500041F08051CBF80010DBF80000012700F0AB
:10356000805000906B4E3068C00510D4306840F435
:1035700080703060FEF714FF009005E0FEF710FF4A
:103580000099401A022850D83068C005F6D55E4E22
:10359000A0686C3601280FD00528306810D020F0C4
:1035A00001003060306820F004003060A068B8B1DD
:1035B000FEF7F6FE00900FE0306840F00100F4E7FF
:1035C00040F004003060F7E7FEF7EAFE0099411A88
:1035D00041F28830814266D830688007F4D50EE029
:1035E000FEF7DEFE009007E0FEF7DAFE0099411AD2
:1035F00041F28830814256D830688007F4D42FB128
:10360000DBF8001021F08051CBF80010A069C8B39E
:103610003D49091D0968C1F3810102294AD00228E8
:10362000504607D0C8F8600000E03CE0FEF7B8FE66
:1036300004463BE04746C8F86000FEF7B1FE064688
:1036400005E000BFFEF7ACFE801B02282BD82868DF
:103650008001F7D4D4E907010843A16A2E4A49083A
:1036600002EB0141626A41EA8211084394F82C108E
:1036700040EA0161C9F8001001203866FEF790FEAB
:10368000044606E03EE000BFFEF78AFE001B02286B
:1036900009D828688001F7D534E000BFFEF780FE26
:1036A000001B022802D90320BDE8F88F286880019A
:1036B000F4D427E00128F7D0D9F80000E26900F43B
:1036C000800191421CD1226A00F03F01914217D142
:1036D00047F6C071626A0140B1EB821F10D1A26A45
:1036E0004FF0FF3300F4403103EB5202B1EB024FD5
:1036F00006D194F82C1000F07060B0EB016F01D08F
:103700000120D1E70020CFE7043802400000474203
:10371000800E4742007000400000FFFF2DE9F04797
:103720000446007900278A4601280ED0012525711C
:1037300060794FF00009012809D00420A06001271A
:1037400084F804903846BDE8F0870220FBE74FF08C
:10375000020884F80580FEF723FE064611E000BF4C
:10376000FEF71EFE801B02280BD920684068C0436C
:10377000C00706D06571C4F8088084F80490012061
:10378000E1E720684068C043C007E9D1206880684D
:10379000E060CAF800006571D2E770B5040003D09C
:1037A0006079002510B105E0012070BD257120462B
:1037B00000F00CF8022060712068016841F00401FB
:1037C000016001206071A560002070BD08B500682F
:1037D0000649884208D10648016841F0400101606D
:1037E000006800F04000009008BD0000000806508E
:1037F0003438024010B500680B4641680D4801405E
:10380000080CD870C1F304245C7001F03F049C7074
:10381000C1F34231197052B901F0BBFFD87058782A
:1038200001F0B7FF5870987801F0B3FF987000204E
:1038300010BD00003FFFFF0010B50B460168896A0C
:10384000596001680969C1F30E0199600068016857
:103850000D480140C1F305401870C1F306245C70A7
:1038600001F07F049C70890DD97052B901F091FF6D
:103870001870587801F08DFF5870987801F089FF22
:103880009870002010BD00007F7F7F0010B50400FD
:1038900002D0607F10B106E0012010BD002020772B
:1038A000204600F041F8022060772068C168C943D3
:1038B000C90632D5CA214162216853204862204698
:1038C00001F07CFF20BB20688168164A11408160AE
:1038D0002168886862681043D4E904231A431043BE
:1038E00088602168E068086120680169228941EAEE
:1038F00002410161204601F085FF48B921680A6C48
:1039000022F480220A6421680A6CA3691A430A64BB
:103910002268FF21516208B110BD002001216177AA
:1039200010BD0000BFFF8FFF1FB500210091019166
:10393000029103910068084988420CD1022000904E
:10394000C00103906846FFF785FB08B1FDF7ACFCAA
:103950000249012008601FBD002800403C0E47427C
:1039600070B50446007F0B46012819D00126267742
:1039700002206077B2B19878D97840EA014558784A
:103980001978000240EA413005432168CA204862A4
:10399000216853204862204601F010FFD0B122E098
:1039A000022070BD5878C10603D500F0EF000A3040
:1039B0005870D87801F0F6FE0204587801F0F2FE53
:1039C00042EA0022987801F0EDFE0243187842EABC
:1039D0004035DAE70748054020684560204601F099
:1039E00011FF00B966772268FF215162002121771B
:1039F00070BD00003FFFFF002DE9F0410446007F4D
:103A00000D46012823D04FF0010884F81C800220C5
:103A100060772068002780684FEA4060D2B10028B4
:103A200000DBEF70A878297840EA01466878E978E9
:103A3000000240EA815006432168CA20486221689A
:103A400053204862204601F0B9FEB8B12CE00220B4
:103A5000BDE8F081002800DBEF70287801F0A2FEBD
:103A60000204687801F09EFE42EA0022A87801F084
:103A700099FE0243E87842EA8056DDE70D480640A9
:103A8000206806602068816821F480218160D5E982
:103A90000301084321688A6810438860204601F0CA
:103AA000B1FE08B984F81D802268FF215162277792
:103AB000CEE700007F7F7F0070B504460B48216889
:103AC000C860FEF76DFC05464FF47A7607E000BF4C
:103AD000FEF766FC401BB04201D9032070BD206890
:103AE000C0688006F4D5002070BD00005F7F010033
:103AF000704770B50446806C002538B1FDF7B6FC00
:103B000020B1606D40F0100060650125E06C38B1B7
:103B1000FDF7ACFC20B1606D40F010006065012540
:103B20002068416821F003014160012084F85100C0
:103B3000284670BD7047000038B5016804464A68E1
:103B40008868C043430606D5C30704D1D3435B0648
:103B500001D4216C64E0830704D4D3431B0601D451
:103B6000616C5DE0830603D5430601D5C30551D4DE
:103B7000D3439B064ED443060AD494F85130032B0A
:103B800049D0636D43F004036365CB688B68009391
:103B9000830609D4636D43F0010363658B6800936A
:103BA0000B6823F040030B60C00506D4606D40F045
:103BB00008006065206880680090606D002829D04A
:103BC0002068416821F0E0014160012084F8510043
:103BD000900701D4D00722D02068416821F003016A
:103BE0004160124DE06C40B10565E06CFDF787FC6B
:103BF00018B1606D40F040006065A06C002809D0ED
:103C00000565A06CFDF77BFC002803D0606D40F0DB
:103C10004000606538BDC8688868009038BD216F75
:103C200001B02046BDE83040084700006563020847
:103C300070B5040009D0606A002540B12561656156
:103C4000A56294F8510040B120E0012070BD606889
:103C5000B0F5827FF4D0E561F2E784F850502D484A
:103C6000A0652D48E0652D4820662D4860662D48EA
:103C7000A0662D48E0662D4820672D486067A06F3C
:103C800008B92C48A067014620468847022084F8DE
:103C900051002068016821F040010160A08821895D
:103CA00000F4827001F404410843A18901F4006129
:103CB0000843217C01F002010843217D01F001014C
:103CC0000843218B01F400710843217F01F0380182
:103CD000084394F8201001F080010843218D01F47D
:103CE0000051084321680860A069042101EA1040DE
:103CF00094F8241001F010010843216848602068FE
:103D0000C16921F40061C1616565012084F8510039
:103D1000002070BDC54402088F3F0208C944020854
:103D2000C7440208913F0208CB440208353B020811
:103D3000F13A0208393D02082DE9F04186B0064605
:103D400014216846FCF7DDFD2F493068884257D1C1
:103D50002E480024016841F480510160006800F49D
:103D60008050059029481438016841F00201016033
:103D70000068694600F0020005903820009002209B
:103D8000CDE9010403200390052004902048FEF7AC
:103D900009FA214D1F484FF0C067E5E802074020AF
:103DA0004FF48068A5E811011B4845F81449AC613F
:103DB000EC612C626C62FDF787FC08B1FDF774FAC8
:103DC000B564AE63144D1348603548382860C5E9C2
:103DD0000174C5E903486C61AC61EC612C62284652
:103DE0006C62FDF771FC08B1FDF75EFAF564002224
:103DF00005212320AE63FEF7CDFB2320FEF7BDFB9C
:103E000006B0BDE8F08100000030014044380240B7
:103E1000000402405864024014C3012070B50446F7
:103E200090F8510001282AD121B11AB1A0680423C9
:103E300010B105E0012070BD6568B5F5827F15D031
:103E400094F85050012D1AD0012584F8505084F870
:103E5000513000256565A163A287E287256465640A
:103E6000A586E586B0F5004F0BD014E084F85130FC
:103E70002046BDE8704013460A4600F035BA0220DD
:103E800070BD2068016821F0400101602068016870
:103E900021F480410160E16C17480864E16C174827
:103EA000C863E16C1648C864E06C0565E38F21685F
:103EB000A26B0C31E06CFDF771FC30B1606D40F02D
:103EC0001000606584F85050B4E720680168490626
:103ED00003D4016841F04001016084F8505020682B
:103EE000416841F0200141602068416841F00101D2
:103EF0004160002070BD00008F630208A1630208CA
:103F00007163020810B5002372B190F85040012C83
:103F100010D0012480F8504090F85140012C0BD073
:103F200090F851400CB324E0416D41F080014165AF
:103F3000012010BD022010BD0A291AD2DFE801F0CD
:103F40000507090B0D0F11132325826516E0C265C5
:103F500014E0026612E0426610E082660EE0C2667D
:103F60000CE002670AE0426708E008290BD0092943
:103F70000BD0416D41F0800141650123002180F8A3
:103F80005010184610BD8267F8E7C267F6E7704721
:103F900070472DE9F84F984616468A460446FEF7C4
:103FA000FFF9814694F8510001281ED1BAF1000FA3
:103FB00073D0002E71D094F85000012815D001273D
:103FC00084F85070032084F8510000256565C4F81A
:103FD00030A0A686E686A563A587E5876564256487
:103FE000A068B0F5004F03D00CE00220BDE8F88FC8
:103FF0002068016821F0400101602068016841F4F7
:104000008041016020680168490603D4016841F0DD
:1040100040010160E068B0F5006F606803D048B30C
:10402000012E27D047E008B1012E1FD1206B216857
:104030000088C86006E020688168890709D5216B7F
:104040000988C160206B801C2063E08E401EE086E2
:104050000CE0FEF7A5F9A0EB0901414503D3B8F147
:10406000FF3F03D035E0B8F1000F32D0E08E0028DA
:10407000E1D123E0206B21680078087306E0206816
:10408000816889070AD5216B09780173206B401C70
:104090002063E08E401EE0860DE02BE0FEF780F905
:1040A000A0EB0901414503D3B8F1FF3F03D010E075
:1040B000B8F1000F0DD0E08E0028E0D14A4641460D
:1040C000204602F02DFA08B120206065A06830B1CA
:1040D00009E084F8517084F85050032086E7206886
:1040E000C1688068009084F8517004F8505F60687F
:1040F0000028F3D0012079E72DE9FF4F81B01D465C
:10410000934604464FF001090E9EFEF749F9074613
:1041100094F851006168012806D0B1F5827F3CD146
:10412000A168C9BB042838D10298002871D0BBF11E
:10413000000FFBD0002DF9D094F8500001282CD0AE
:104140004FF0010A84F850A094F85100042802D0DE
:10415000052084F851004FF00008C4F85480C4F8DA
:1041600038B0E587A58702992163E586A586C4F85E
:104170004080C4F8448020680168490603D401687F
:1041800041F040010160E068B0F5006F606808D060
:10419000F0B3012D49D081E0FFE7022005B0BDE872
:1041A000F08F08B1012D39D1206B21680088C860DB
:1041B000206B801C2063E08E401EE0862EE020688D
:1041C000816889070FD5E18E69B1B9F1010F0AD174
:1041D000216B0988C160206B801C2063E08E401E2B
:1041E000E0864FF0000920688168C9070CD0E18F94
:1041F00051B1C068A16B0880A06B801CA063E08FE8
:10420000401EE0874FF00109FEF7CAF8C01B01E02D
:104210000BE067E0B04201D3701C50D1E08E002863
:10422000CDD1E08F0028CAD13EE0206B2168007814
:104230000873206B401C2063E08E401EE0862DE05A
:104240002068816889070FD5E18E69B1B9F1010F46
:104250000AD1216B09780173206B401C2063E08E2A
:10426000401EE0864FF0000920688168C9070CD025
:10427000E18F51B1C068A16B0870A06B401CA063B6
:10428000E08F401EE0874FF00109FEF789F8C01B60
:10429000B04202D3701C01D011E086B1E08E00283C
:1042A000CED1E08F0028CBD13A463146204602F0ED
:1042B00037F950B12020606584F8508012E084F80E
:1042C00051A084F85080032068E7A06818B92068DE
:1042D000C1688068009084F851A084F85080606DB7
:1042E0000028F1D0012059E770B5044690F851003C
:1042F0006568012806D0B5F5827F3AD1A568A5BBCF
:10430000042836D191B38AB383B394F850000128BE
:104310002FD0012084F8500094F85100042802D0D6
:10432000052084F85100002565652163A386E38696
:10433000A263A387E3872564656494F85100042889
:1043400019D0E16C274808642748E16CC863E16C28
:104350002648C864E06C0565E38F2168A26B0C31C8
:10436000E06CFDF71BFA00BB0AE002E0FFE701206A
:1043700070BD022070BDE16C1D4808641D48E4E773
:104380002068416841F001014160A06C0564A06CA7
:10439000C563A06CC564A06C0565E38E2268216BC3
:1043A0000C32A06CFDF7FAF930B1606D40F01000EE
:1043B000606584F85050DAE720680168490603D444
:1043C000016841F04001016084F850502068416864
:1043D00041F0200141602068416841F002014160E4
:1043E000002070BD9B6302086D64020871630208BF
:1043F0008F630208A163020870B5044690F851006B
:1044000001281CD1C9B1C2B194F85000012816D0BE
:10441000012084F85000032084F8510000256565D0
:104420002163A286E286A56365642564A587E58786
:10443000A068B0F5004F04D00DE0012070BD02204F
:1044400070BD2068016821F04001016020680168AA
:1044500041F480410160A16C17480864A16C1748C1
:10446000C863A16C1648C864A06C0565E38E226819
:10447000216B0C32A06CFDF791F930B1606D40F00A
:104480001000606584F85050D7E72068016849063D
:1044900003D4016841F04001016084F85050206865
:1044A000416841F0200141602068416841F002010B
:1044B0004160002070BD0000956302080964020895
:1044C00071630208704770477047704770477047C4
:1044D0007047000070B590F83C20012A32D00124CA
:1044E00080F83C40022280F83D2003685A689D68AD
:1044F00022F070060A6832435A60134B02689A42EF
:1045000014D0B2F1804F11D0104B9A420ED0104B04
:104510009A420BD00F4B9A4208D00F4B9A4205D0CB
:104520000E4B9A4202D00E4B9A4204D1496825F0B4
:1045300080031943916080F83D40002180F83C10D1
:10454000084670BD022070BD00000140000400401C
:1045500000080040000C0040000401400040014001
:104560000018004010B5040003D094F83D0010B1CD
:104570000EE0012010BD002084F83C00204602F02F
:1045800011FBA06C08B91148A06401462046884779
:10459000022084F83D00211D206802F09BFA0120D2
:1045A00084F8460084F83E0084F83F0084F8400018
:1045B00084F8410084F8420084F8430084F8440001
:1045C00084F8450084F83D00002010BDD145020864
:1045D00008B500680B49884212D10B48016841F0C8
:1045E000200101600068002200F0200000900521F9
:1045F0003720FDF7CFFFBDE808403720FDF7BDBFEE
:1046000008BD0000001400404038024090F83D1002
:10461000012901D001207047022180F83D10016876
:10462000CA6842F00102CA6000681149884214D089
:10463000B0F1804F11D00F4988420ED00E49884208
:104640000BD00E49884208D00D49884205D00D494B
:10465000884202D00C49884204D1816801F00701E8
:10466000062903D0016841F0010101600020704774
:10467000000001400004004000080040000C004021
:1046800000040140004001400018004001680A6A2F
:1046900041F211131A4207D10A6A9B101A4203D140
:1046A0000A6822F001020A60012180F83D10002012
:1046B00070477047704770472DE9F0410446006825
:1046C000C66805694FF00007A90715D5B10713D5CE
:1046D000F91E01610120207720688069800702D0DF
:1046E000D4F8901005E0D4F8981020468847D4F804
:1046F0009C10204688472777680718D5700716D57D
:1047000021686FF00400086102202077206880692A
:1047100010F4407F02D0D4F8901005E0D4F898103F
:1047200020468847D4F89C102046884727772807DA
:1047300017D5300715D521686FF0080008610420EF
:1047400020772068C069800702D0D4F8901005E077
:10475000D4F8981020468847D4F89C102046884703
:104760002777E80618D5F00616D521686FF01000F7
:104770000861082020772068C06910F4407F02D0CB
:10478000D4F8901005E0D4F8981020468847D4F863
:104790009C10204688472777E80709D0F00707D004
:1047A00021686FF001000861D4F880102046884726
:1047B000280609D5300607D521686FF0800008610A
:1047C000D4F8B01020468847680609D5700607D58A
:1047D00021686FF040000861D4F8881020468847AF
:1047E000A8060BD5B00609D521686FF02000086136
:1047F0002046D4F8A810BDE8F0410847BDE8F08194
:104800007047000070B50D46040003D094F83D00D9
:1048100010B10EE0012070BD002084F83C0020465D
:1048200002F0C0F9A06E08B90F48A0660146204604
:104830008847022084F83D00211D206802F04AF9D3
:104840002068016821F00801016054F8460B0168F6
:1048500029430160012004F81F09E0752076E07605
:104860002077A075002070BD6D4802087047704722
:104870007047000000680349884201D1FDF7DEBDA2
:104880007047000000100040704710B500233AB197
:1048900090F83D40012C05D090F83D407CB362E09B
:1048A000012010BD1B295ED2DFE801F041434547DE
:1048B000494B4D4F51535557595B0E1114171A1D43
:1048C0002023262A2D303300C0F880204CE0C0F889
:1048D000842049E0C0F8882046E0C0F88C2043E0FE
:1048E000C0F8902040E0C0F894203DE0C0F8982047
:1048F0003AE0C0F89C2037E0C0F8A02034E00BE09C
:10490000C0F8A42030E0C0F8A8202DE0C0F8AC200A
:104910002AE0C0F8B02027E00E2924D2DFE801F019
:1049200007090B0D0F11131517191B1D1F21826489
:104930001AE0C26418E0026516E0426514E0826580
:1049400012E0C26510E002660EE042660CE082668C
:104950000AE0C26608E0026706E0426704E0826798
:1049600002E0C26700E00123184610BD704770479F
:10497000704770B5044620680C3050E8001F21F4E1
:10498000F07140E80012002AF5D12068143050E898
:10499000001F21F0010140E80012002AF5D1206B30
:1049A000012809D120680C3050E8001F21F01001C7
:1049B00040E80012002AF5D1206840694FF0100647
:1049C00000064FF0000515D52068143050E8001F90
:1049D00021F0800140E80012002AF5D1A06B48B117
:1049E0000565A06BFCF742FD20B1A06BFCF799FDBB
:1049F000202824D020684069400615D5206814304E
:104A000050E8001F21F0400140E80012002AF5D1D3
:104A1000E06B48B10565E06BFCF728FD20B1E06B69
:104A2000FCF77FFD20280AD0E584E5856564202019
:104A300084F8420084F841002563002070BD66645C
:104A4000032070BD704770B5044620680C3050E8F4
:104A5000001F21F4907140E80012002AF5D120686F
:104A6000143050E8001F21F0010140E80012002A34
:104A7000F5D1206B012809D120680C3050E8001FC7
:104A800021F0100140E80012002AF5D120684069A9
:104A90004FF00005400615D52068143050E8001F7F
:104AA00021F0400140E80012002AF5D1E06B48B146
:104AB0000565E06BFCF7DAFC20B1E06BFCF731FD3B
:104AC000202806D0E585202084F8420025630020B8
:104AD00070BD10206064032070BD704770B504463F
:104AE00020680C3050E8001F21F0C00140E800129F
:104AF000002AF5D1206840691546000615D52068C2
:104B0000143050E8001F21F0800140E80012002A14
:104B1000F5D1A06B48B10565A06BFCF7A7FC20B1EF
:104B2000A06BFCF7FEFC202805D0E584202084F84B
:104B30004100002070BD10206064032070BD7047EC
:104B400070470000F8B5016804460868CA684B69F8
:104B500010F00F0F4FF0000556D003F0010602F4DD
:104B60009077374361D0C10705D0D10503D5616C7B
:104B700041F001016164410705D5D90703D0616C9B
:104B800041F002016164810705D5D90703D0616C4A
:104B900041F004016164010707D502F020013143AF
:104BA00003D0616C41F008016164616C00293BD065
:104BB000800604D5900602D5204602F0D3F820687E
:104BC0004069616CC0F38010090700D440B32046EF
:104BD00002F06DF82068406940061ED52068143048
:104BE00050E8001F21F0400140E80012002AF5D1F2
:104BF000E06B90B172490165E06BFCF780FC002826
:104C000012D0E06B016DD7E083060ED593060CD56C
:104C10002046BDE8F84002F0A5B82046A16DCBE0E3
:104C2000A16D204688476564F8BD266B2023012EC0
:104C30007ED1C6067CD5D6067AD50868486800902D
:104C400048694FF00206400649D5E26B106840689B
:104C50004FF480770004000C3AD0A18D814237D9FF
:104C6000E085D069B8422DD020680C3050E8001F94
:104C700021F4807140E80012002AF5D12068143038
:104C800050E8001F21F0010140E80012002AF5D190
:104C90002068143050E8001F21F0400140E8001265
:104CA000002AF5D184F84230256320680C3050E8A2
:104CB000001F21F0100140E80012002AF5D1E06B3E
:104CC000FCF7D4FB6663A08DE18D401A81B233E01E
:104CD000A18D8142A8D1D069B8422CD0F8BDA08D59
:104CE000E18D401A81B2E08D0028F7D00029F5D07F
:104CF00020680C3050E8002F22F4907240E8002722
:104D0000002FF5D12068143050E8002F22F0010266
:104D100040E80027002FF5D184F842302563206851
:104D20000C3050E8002F22F0100240E8002300E091
:104D300008E0002BF3D16663E26E01B02046BDE8C7
:104D4000F040104705062BD5150629D594F84100EB
:104D50002128C3D1A068B0F5805F01D12069B0B12E
:104D6000206A411C2162216800784860E08C401E66
:104D70000004000CE084B1D12068C16821F08001FA
:104D8000C1602068C16841F04001C160F8BD206A7F
:104D90000088C0F308004860206A801C2062E5E7B4
:104DA0004006F3D55006F1D5CA68204622F04002ED
:104DB000CA6084F84130E16C01B0BDE8F0400847BA
:104DC000156C020870B5040004D094F84100002569
:104DD00010B10DE0012070BD84F84050204601F074
:104DE0009BFF206F08B9144820670146204688477A
:104DF000242084F841002068C16821F40051C1607A
:104E0000204602F011F82068016921F49041016107
:104E10002068416921F02A0141612068C16841F49C
:104E20000051C1606564202084F8410084F842008C
:104E30006563002070BD00003D4E02082DE9F0477B
:104E400086B0064614216846FBF75BFD364930689C
:104E5000884265D135480024016841F48021016011
:104E6000006800F48020059030481038016841F057
:104E70000201016000684FF4806800F002004FF00A
:104E80000709CDF80080CDE9049003270225039798
:104E9000DFF89CA0CDE9015469465046FDF782F940
:104EA000A802CDE9000502AA012082E88102694634
:104EB0005046FDF777F9204D1E484FF00067E5E8B2
:104EC00002074020A5E811011B4845F81449AC61D0
:104ED000EC612C626C62FCF7F7FB08B1FCF7E4F9BB
:104EE000B563AE63144D1348603530382860C5E9AA
:104EF0000174C5E903486C61AC61EC612C62284621
:104F00006C62FCF7E1FB08B1FCF7CEF9F563002217
:104F100005212720AE63FDF73DFB2720FDF72DFB84
:104F200006B0BDE8F087000000480040403802406D
:104F300000040240586002404C03002090F84230C8
:104F4000202B01D00220704721B11AB10023036346
:104F500001F0F0BF0120704710B500233AB190F87E
:104F60004140202C09D090F841400CB324E0416C22
:104F700041F020014164012010BD0D291CD2DFE861
:104F800001F007090B0D0F1113151B1B1B22240029
:104F9000826416E0C26414E0026512E0426510E02B
:104FA00082650EE0C2650CE002660AE0426608E037
:104FB0000B2908D00C2908D0416C41F02001416434
:104FC0000123184610BD0267FBE74267F9E7704707
:104FD0007047000070B5044690F84100202801D0C9
:104FE000022070BD01B3FAB12162A284E2840020E4
:104FF0006064212384F84130A56B144BEB63A56BEF
:10500000134B2B64A56B134BEB64A36B18652068E3
:105010001346A56B021D2846FCF7C0FB30B11020DB
:105020006064202084F84100012070BD21686FF089
:10503000400008602068143050E8001F41F08001F3
:1050400040E80012002AF5D1002070BD6B6C020808
:10505000A96C02081F6C02087047704702A100206B
:1050600000F008FDFEE700005B666174616C5D2086
:10507000486172644661756C740D0A00F0B50023D6
:105080000A24302537261F4611E000BFB4EB107FFD
:1050900002D905EB107C01E006EB107C01F813C08F
:1050A00001EB430C00015B1C8CF80170DBB29342F6
:1050B000ECD3F0BD38B504460020009063696A4621
:1050C0000121206898476FF00405002825DB6369FB
:1050D0006A4601212068984700281EDB0098400797
:1050E00001D4012038BD63696A46002120689847D1
:1050F000002812DB0098C10408D44FF40451814306
:105100001CD081041CD4C0051CD415E063696A4618
:105110001F2120689847002801DA284638BD0098EA
:10512000C10401D4062038BDC0F38200062805D092
:10513000022805D0052805D0052038BD022038BD3D
:10514000032038BD042038BDF8B5054600200446CC
:1051500006460090686808BBA86800B18047202018
:105160006FF0040728606B696A4612212046984751
:10517000002801DA3E4609E0009800F01F00A04236
:1051800004D100262C601F2C06D809E0641C1F2CBB
:10519000E9D92C681F2C02D96FF0020602E00EB983
:1051A000012068603046F8BD88B1CA687AB18A6863
:1051B0006AB10A695AB10A6882604A68C260CA68FC
:1051C00042618A68026109698161002070474FF07D
:1051D000FF307047194808B5016841F400110160BB
:1051E000016801F400110091016841F4800101603F
:1051F0000068002200F48000009005210C20FDF7DB
:10520000C9F90C20FDF7B9F9002205210E20FDF7A0
:10521000C1F90E20FDF7B1F9002205213820FDF774
:10522000B9F93820FDF7A9F9002205213B20FDF747
:10523000B1F9BDE808403B20FDF79FB93038024086
:1052400010B531F0E9FA13F0ADF9044C044A00212D
:105250002070044822F0CAFE606010BD00000020EB
:10526000D88C0508F16602082DE9F04186B01421BA
:105270006846FBF746FB32480024016841F0100104
:105280000160016801F010010591016841F004011D
:105290000160016801F004010591016841F080019D
:1052A0000160016801F080010591016841F0010190
:1052B0000160016801F001010591016841F00201FE
:1052C0000160016801F002010591016841F04001AF
:1052D000016000681B4F00F040000590002204218F
:1052E0003846FDF757F8DFF860800022402140463D
:1052F000FDF750F80122160231464046FDF74AF804
:1053000004200125CDE900050320CDE902406946CE
:105310003846FCF747FF40200090CDE9015469462C
:1053200040460394FCF73EFF0220CDE90240CDE960
:10533000006569464046FCF735FF06B0BDE8F081E0
:10534000303802400010024000180240094810B5F1
:10535000074901600621416040F6C3118160FDF7F5
:1053600037F8002803D0BDE81040FBF79DBF10BD03
:105370000030004088C201200EB5002108462FF001
:105380004DFB20490020214A0860091D1D4B086083
:10539000091D08330860CDE900021B4902911A1F5C
:1053A000111F1B4822F036F8194822F06FFA1848EE
:1053B00022F084FB1749164822F0C2FA144824212F
:1053C0003830FBF79EFA124813A1383002460160CC
:1053D0004FF480614161102181610D49104822F034
:1053E00005FE0B480AF0DCF90E4828F004FF002205
:1053F0000D494FF47A7028F04DFFBDE80E40094882
:1054000028F00ABF70000020ED4B05087D35030829
:10541000B0CC0120D53303084574684C696E6B002D
:10542000D933030888C00120E54E050810B50A48A5
:105430001BF04DFD0848BC301BF0D2F807481CF0AB
:1054400013FB074814F08FFD064815F0A9FCBDE8D2
:105450001040054819F0B8BA18590120345A0120F3
:10546000685B0120A85C0120D5E90308074910B555
:10547000054808600846FEF790F9002803D0BDE80B
:105480001040FBF711BF10BD00080650F0010020CE
:105490000B4810B50949016000217F22C0E90112C3
:1054A000FF22C0E9032141618161FEF7EFF9002885
:1054B00003D0BDE81040FBF7F7BE10BD0028004048
:1054C00000020020104810B50E4901604FF48271AF
:1054D000416000218160C1604FF400720161C0E948
:1054E00005120822C0E90721416281620A21C162D6
:1054F000FEF79EFB002803D0BDE81040FBF7D4BEAA
:1055000010BD00000030014094C201201CB50024F1
:10551000124800941049019401605321C0E901141C
:1055200040F69F718461C160FFF71CF808B1FBF77A
:10553000BBFE08210948FFF765F908B1FBF7B4FE87
:105540000094694605480194FEF7C4FF002801D085
:10555000FBF7AAFE1CBD0000001400402002002042
:105560000C4810B50A4901604FF416514160002102
:1055700081600C22C160C0E904128161C161FFF742
:1055800021FC002803D0BDE81040FBF78DBE10BD04
:1055900000480040D402002010B501220F491048F5
:1055A00002F028F908B1FBF77FFE0E490C4802F023
:1055B00041FB08B1FBF778FE0B49094801F0AAFE50
:1055C00008B1FBF771FE064802F0B8FB002803D0D3
:1055D000BDE81040FBF768BE10BD000070C101209F
:1055E00080EA0120800100208CC1012002A100205E
:1055F00000F040FAFEE700005B666174616C5D20BC
:105600004D656D4D616E616765206661756C740DE9
:105610000A000000FEE700000148FDF739B900006C
:10562000D85F01202DE9F04103680D4604461E6C49
:1056300003EB4511D1F8080B94F806E04FF400474E
:105640004FF0200C04F29C42BEF1010F09D0DFF8AC
:1056500098E0764539D1020432D500BFC1F8087B05
:105660003FE0224B5FEA007E04D59E4239D9000418
:10567000F4D436E05FEA806E02D5C1F808CB30E0A2
:1056800010F0280F2DD19E4201D90004E6D405EB7D
:10569000C50004EB8000D1F8101BD0F87432C1F3C0
:1056A0001201591AC0F8681200F51570ADB90369F6
:1056B0001BB1C2681144C1600FE0012120680AE0FB
:1056C00080060AD5C1F808CB07E035B9D4F86402E2
:1056D00018B90021184602F0B3FEE9B22046FCF7E3
:1056E000BFFF0020BDE8F0810A31544F0A30544F0B
:1056F0002DE9F84F0E4601EBC60100EB810481460F
:105700000568D4E909101434884202D90120BDE8A3
:10571000F88F081AA168814200D20846C01C870889
:1057200005EB46181BE000BFA0EB010AA06850453E
:1057300000D282460AF10300870899F8060000901B
:105740001FFA8AF3F2B22846E16803F0B7F9E1687C
:1057500001EB0A00E060616901EB0A006061D8F8C2
:10576000180980B2B84205D3D4E90401814201D2BC
:105770000028D9D1D4E90401884208D806F00F01E5
:1057800001208840D5F834188143C5F8341800202A
:10579000BDE7010901EB810100F00F0000EB4100C2
:1057A000C0B27047002102E00A38C0B2491C0A2882
:1057B000FAD2090740EA1160704700002DE9F04174
:1057C000044600680025C168490618D4C16841F044
:1057D0008001C160FCF7E4FD06464FF47A780427A7
:1057E00007E000BFFCF7DCFD801B404501D967776F
:1057F00001252068C068400601D4002DF2D028465B
:10580000BDE8F08170B5044600680025C16821F04C
:105810008001C16020688068800606D42046FEF7BB
:105820004BF910B1042060770125284670BD0000B7
:105830002DE9F04104461548DDF818801D46007832
:1058400016460F46532801D003F076F90F48022C74
:1058500018D2EFF31181502282F3118804EB440235
:1058600000EBC20048302CB1076046608560002222
:105870000261C260C0F81480C8B280F311880020B1
:10588000BDE8F0814FF0FF30FAE70000604C0010F7
:105890002DE9F04104461548DDF818801D460078D2
:1058A00016460F46532801D003F046F90F48022C44
:1058B00018D2EFF31181502282F3118804EB4402D5
:1058C00000EBC20018302CB10760466085600022F2
:1058D0000261C260C0F81480C8B280F31188002051
:1058E000BDE8F0814FF0FF30FAE70000604C001097
:1058F00003F022B92DE9F04705461C4816460C4630
:105900000078532801D003F017F9184905EB45003A
:1059100001EBC007A046D7E91595002448374D454F
:1059200011D9B868441BB44200D334467868224683
:1059300041194046FAF7BEFFB868361B2544A0441B
:10594000A84200D10025A9EB0500B04200D20646CE
:105950003EB17868324641194046FAF7ABFF34440D
:10596000354404B13D612046BDE8F087604C00102D
:105970002DE9F04107460B4815460E46007853289E
:1059800001D003F0D9F8EFF31184502080F311888F
:105990002A463146384600F007F8E1B281F3118813
:1059A000BDE8F081604C001070B50E46144900EB64
:1059B000400001EBC0051446E86A183520B1012803
:1059C0000FD0022805D113E0284603F002F9A042C7
:1059D00001D2002411E022463146284603F0E4FBC0
:1059E0000BE0284603F0F5F8A042F4D20446F2E7B3
:1059F0003146284603F0ABFB0446204670BD00004C
:105A0000604C00102DE9F0410F46194900EB4000B1
:105A100001EBC0041646A16A656AE069183428449F
:105A2000A94217D8A268521B531EB34201D3324673
:105A300014E01944B14219D315463946FAF73AFF32
:105A40002A46761B04D0B91832466068FAF732FF4E
:105A5000E66008E0491B491EB14207D33946FAF710
:105A600029FFA819E0600120BDE8F0810020FBE7D4
:105A7000604C00100FB408B504A900916A46039960
:105A800000F004F801B05DF814FB00002DE9F047C8
:105A9000A8B0814607A8029080204FF0000803902C
:105AA000CDF8108092460C464046CDE9058900BFEE
:105AB00014F8011B002972D0252908D002A803F090
:105AC000FAFA05980028F3DA28B0BDE8F08700203C
:105AD00001212278232A1ED02B2A19D02D2A02D068
:105AE000302A08D102E040F0010001E040F002005D
:105AF000641C0029EDD100212278A2F130030A2B89
:105B00000CD201EB810102EB41013039641CF3E757
:105B100040F00400ECE740F00800E9E70026D2B2CC
:105B200035462E2A19D114F8012F2A2A08D1DAF87D
:105B300000200126131DCAF80030641C15680CE013
:105B40002278A2F130030A2B07D205EB8503012648
:105B500002EB4305641C303DF2E722786C2A0DD03D
:105B6000682A0BD0702A58D00BDC252A61D0582A1D
:105B70002ED0632A0CD0642A5FD111E014F8012FD3
:105B8000ECE7732A33D0752A19D0782A55D11FE053
:105B9000DAF80000011DCAF8001001784AE04EE072
:105BA000DAF80020131DCAF800301668CDE900109D
:105BB0002B460A22314602A803F05EF83DE0DAF8EF
:105BC0000020131DCAF8003016682B460A2207E091
:105BD000DAF80020131DCAF8003016682B46102290
:105BE000CDE90010314602A803F0AAF825E0DAF862
:105BF0000000011DCAF8001007680FB917A700269A
:105C000017F8011BC9B106B1BDB102A803F053FAE0
:105C100005986D1E0028F3DA0FE0DAF8000008227C
:105C2000011DCAF800100168CDE9002813461022B2
:105C3000D9E7252102A803F03EFA641C41E70028B9
:105C40007FF742AF049820B1024607A94846FFF704
:105C50008FFEDDE904100844059035E7284E554CC9
:105C60004C290000084810B50168054B054A084654
:105C700000F04CF8BDE810404FF0805000F0DCBA66
:105C8000A59202085CC905083400002070B5EFF346
:105C90001185502080F311881B48A0F1370401467C
:105CA000626804E042F0800301F8013BD2097F2AD8
:105CB000F8D801F8012BA26805E000BF42F080038C
:105CC00001F8013BD2097F2AF8D801F8012B22699B
:105CD00005E000BF42F0800301F8013BD2097F2AB2
